{
  "contractName": "Ownable",
  "abi": [
    {
      "inputs": [],
      "payable": false,
      "stateMutability": "nonpayable",
      "type": "constructor"
    },
    {
      "constant": true,
      "inputs": [],
      "name": "owner",
      "outputs": [
        {
          "internalType": "address",
          "name": "",
          "type": "address"
        }
      ],
      "payable": false,
      "stateMutability": "view",
      "type": "function"
    }
  ],
  "bytecode": "0x608060405234801561001057600080fd5b50336000806101000a81548173ffffffffffffffffffffffffffffffffffffffff021916908373ffffffffffffffffffffffffffffffffffffffff16021790555060cf8061005f6000396000f3fe6080604052348015600f57600080fd5b506004361060285760003560e01c80638da5cb5b14602d575b600080fd5b60336075565b604051808273ffffffffffffffffffffffffffffffffffffffff1673ffffffffffffffffffffffffffffffffffffffff16815260200191505060405180910390f35b6000809054906101000a900473ffffffffffffffffffffffffffffffffffffffff168156fea265627a7a7231582086f6c7a197f8c9a6d4d02605bd395a008975e9e91bb7d2febdd4b8989909fade64736f6c634300050c0032",
  "source": "pragma solidity 0.5.12;\r\n\r\ncontract Ownable{\r\n    address public owner;\r\n    \r\n     modifier onlyOwner(){\r\n        require(msg.sender == owner);\r\n        _; \r\n    }\r\n    \r\n    constructor() public{\r\n        owner = msg.sender;\r\n    }\r\n    \r\n}",
  "sourcePath": "C:\\Xdev\\bootcamp_Iot\\Assignments\\bootcamp_IvanOntech_assignments\\Week7\\D4_truffle\\contracts\\Ownable.sol",
  "compiler": {
    "name": "solc",
    "version": "0.5.12+commit.7709ece9.Emscripten.clang"
  },
  "schemaVersion": "3.2.0",
  "updatedAt": "2020-08-23T22:18:27.888Z",
  "devdoc": {
    "methods": {}
  },
  "userdoc": {
    "methods": {}
  }
}